:100000000C942A000C94B8000C943C000C943C0016
:100010000C94D6010C943C000C943C000C943C00D5
:100020000C943C000C9411010C943C000C943C008A
:100030000C943C000C943C000C943C000C943C0050
:100040000C943C000C943C000C943C000C943C0040
:100050000C943C0011241FBECFE5D4E0DEBFCDBF21
:1000600020E0A0E6B0E001C01D92A037B207E1F7A2
:100070000E94F6010C94FF010C94000084B3806E82
:1000800084BB08958091610080FD39C081608093B8
:100090006100809169008F5F80936900863018F05D
:1000A000109269000EC0823091F028F4882349F044
:1000B0008130A1F40AC0843071F058F0853071F4B9
:1000C0000CC085B38F7185BB09C0AD9A07C0AE9ACD
:1000D00005C0AD9803C0AF9A01C0AD9A85B78360E3
:1000E00085BF8BB780648BBF83B7887F83BF83B79F
:1000F000846083BF12BE89B7816089BF78940895F8
:10010000982F862F923081F028F4992349F091306E
:1001100091F408C0943061F048F0953061F40AC061
:1001200082600895846008958860089580610895CC
:100130008062089580640895982F862F923081F010
:1001400028F4992349F0913091F408C0943061F07B
:1001500048F0953061F40AC08D7F08958B7F089533
:10016000877F08958F7E08958F7D08958F7B0895F2
:100170001F920F920FB60F9211242F933F934F931C
:100180005F936F937F938F939F93AF93BF93EF93FF
:10019000FF9385B783708330D9F4F8948091680019
:1001A000813081F489B78E7F89BF83B7887F83BF11
:1001B00083B7826083BF12BE85B78E7F85BF1092E2
:1001C000680004C012BE81E080936800789418C073
:1001D0008230B1F4F89492B780916900E82FF0E092
:1001E000EE59FF4F9083609161006E7F60936100D4
:1001F0009BB79F7B9BBF0E949C008093610078947B
:10020000FF91EF91BF91AF919F918F917F916F91EE
:100210005F914F913F912F910F900FBE0F901F90C4
:1002200018951F920F920FB60F9211242F933F93A0
:100230004F935F936F937F938F939F93AF93BF93EE
:10024000EF93FF93F89480916000803198F0609173
:1002500061006E7F609361008BB78F7B8BBF89B726
:100260008E7F89BF809169000E9480008093610029
:1002700010926000809160008F5F8093600078949E
:10028000FF91EF91BF91AF919F918F917F916F916E
:100290005F914F913F912F910F900FBE0F901F9044
:1002A000189587B3886887BB87B38C7C87BB84B37A
:1002B0008C6184BB81B3826781BB8E9885B5876072
:1002C00085BD89B7806489BF8FB5816A8FBD8FB5C1
:1002D0008D7F8FBD8EB588608EBD8EB58F7E8EBDB5
:1002E0008EB582608EBD8EB58A7F8EBD0E943E0027
:1002F000089580916500982F935B933120F19B5373
:10030000913118F4AB9A2EEF21C0982F90539B3562
:1003100018F4AB982EEF1AC0982F965C983238F4E8
:10032000282F220F280F220F245AAB9A0FC0982F84
:100330009B58983250F4282F220F280F220F219516
:10034000245DAB9803C020E001C020E080916600EE
:10035000982F935B933120F19B53913118F4AC9A11
:100360008EEF21C0982F90539B3518F4AC988EEFE8
:100370001AC0982F965C983238F4982F990F890FED
:10038000880F845AAC9A0FC0982F9B58983250F41B
:10039000982F990F890F880F8195845DAC9803C0C1
:1003A00080E001C080E02ABD88BD08951F920F92B1
:1003B0000FB60F9211242F938F939F93EF93FF9378
:1003C000F894EBE6F0E081E790E020812F5F219345
:1003D000E817F907D1F77894FF91EF919F918F91EA
:1003E0002F910F900FBE0F901F9018950E945101F2
:1003F0007894C69A0E9442000E947901FBCFF8943B
:02040000FFCF2C
:00000001FF
