S0130000526173656E6D61656865722E73726563A6
S11300000C942A000C947A000C943C000C943C0050
S11300100C943C000C943C000C943C000C943C006C
S11300200C943C000C94D3000C943C000C943C00C5
S11300300C943C000C943C000C943C000C943C004C
S11300400C943C000C943C000C943C000C943C003C
S11300500C943C0011241FBECFE5D4E0DEBFCDBF1D
S113006020E0A0E6B0E001C01D92AA36B207E1F795
S11300700E9413010C943E010C94000084B3806E22
S113008084BB0895982F862F923081F028F4992309
S113009049F0913091F408C0943061F048F0953003
S11300A061F40AC0826008958460089588600895A8
S11300B0806108958062089580640895982F862F42
S11300C0923081F028F4992349F0913091F408C0DA
S11300D0943061F048F0953061F40AC08D7F089542
S11300E08B7F0895877F08958F7E08958F7D08956F
S11300F08F7B08951F920F920FB60F9211242F93A6
S11301003F934F935F936F937F938F939F93AF939B
S1130110BF93EF93FF9385B783708330D9F4F8943A
S113012080916800813081F489B78E7F89BF83B75D
S1130130887F83BF83B7826083BF12BE85B78E7FFB
S113014085BF1092680004C012BE81E080936800ED
S1130150789418C08230B1F4F89492B78091690011
S1130160E82FF0E0EE59FF4F9083609161006E7FBD
S1130170609361009BB79F7B9BBF0E945E0080934E
S113018061007894FF91EF91BF91AF919F918F910E
S11301907F916F915F914F913F912F910F900FBE7F
S11301A00F901F9018951F920F920FB60F92112463
S11301B02F933F934F935F936F937F938F939F936B
S11301C0AF93BF93EF93FF93F894809160008031D5
S11301D098F0609161006E7F609361008BB78F7BB4
S11301E08BBF89B78E7F89BF809169000E944200CE
S11301F08093610010926000809160008F5F809313
S113020060007894FF91EF91BF91AF919F918F918E
S11302107F916F915F914F913F912F910F900FBEFE
S11302200F901F9018950E941601FFCF87B388681E
S113023087BB87B38C7C87BB84B38C6184BB81B35D
S1130240826781BB8E9885B5876085BD89B78064D8
S113025089BF8FB5816F8FBD8FB58D7F8FBD8EB5F3
S113026088608EBD8EB58F7E8EBD8EB582608EBD4C
S11302708EB58A7F8EBD0E943E000895F894FFCF0C
S9030000FC
